:100000000C9462000C948A000C948A000C948A0070
:100010000C948A000C948A000C948A000C948A0038
:100020000C948A000C948A000C948A000C948A0028
:100030000C948A000C948A000C948A000C948A0018
:100040000C9423030C948A000C9493030C946D037A
:100050000C948A000C948A000C948A000C948A00F8
:100060000C948A000C948A000000000023002600F3
:10007000290000000008000201000003040700003E
:1000800000000000000000000000250028002B00F8
:1000900000000000240027002A00040404040404D3
:1000A0000404020202020202030303030303010227
:1000B00004081020408001020408102001020408F6
:1000C00010204A0511241FBECFEFD8E0DEBFCDBF00
:1000D00021E0A4E2B1E001C01D92AC3CB207E1F71F
:1000E00011E0A0E0B1E0E6E7FBE002C005900D9270
:1000F000A432B107D9F710E0C2E6D0E004C02197DE
:10010000FE010E94B305C136D107C9F70E94C5039D
:100110000C94B9050C94000090E0FC01E255FF4FEF
:10012000249186569F4FFC018491882399F090E09A
:10013000880F991FFC01E057FF4FA591B491FC0176
:10014000EA57FF4F859194918FB7F894EC91E22B89
:10015000EC938FBF0895833081F028F4813099F0BB
:100160008230A9F008958730A9F08830C9F0843032
:10017000B1F4809180008F7D03C0809180008F77E3
:1001800080938000089584B58F7784BD089584B5E9
:100190008F7DFBCF8091B0008F778093B000089562
:1001A0008091B0008F7DF9CFCF93DF93282F30E07F
:1001B000F901EE58FF4F8491F901E255FF4FD491B8
:1001C000F901E656FF4FC491CC23A1F081110E94A2
:1001D000AB00EC2FF0E0EE0FFF1FE859FF4FA591A9
:1001E000B491EC91ED2381E090E009F480E0DF919F
:1001F000CF91089580E090E0FACF1F93CF93DF93E3
:10020000282F30E0F901EE58FF4F8491F901E255B3
:10021000FF4FD491F901E656FF4FC491CC23A9F0CA
:10022000162F81110E94AB00EC2FF0E0EE0FFF1FA4
:10023000EA57FF4FA591B4918FB7F894EC91111143
:1002400008C0D095DE23DC938FBFDF91CF911F9143
:100250000895DE2BF8CF3FB7F89480912701909155
:100260002801A0912901B0912A0126B5A89B05C0BB
:100270002F3F19F00196A11DB11D3FBFBA2FA92F25
:10028000982F8827BC01CD01620F711D811D911D22
:1002900042E0660F771F881F991F4A95D1F708958E
:1002A0008F929F92AF92BF92CF92DF92EF92FF9286
:1002B0000E942B014B015C0184E1C82ED12CE12C62
:1002C000F12C0E942B01681979098A099B09683E63
:1002D000734081059105A8F321E0C21AD108E10815
:1002E000F10888EE880E83E0981EA11CB11CC11491
:1002F000D104E104F10429F7FF90EF90DF90CF9053
:10030000BF90AF909F908F900895AF92BF92CF9281
:10031000DF92EF92FF920F931F93CF93DF936C01C5
:100320007B018B01040F151FEB015E01AE18BF08A6
:10033000C017D10759F06991D601ED91FC91019058
:10034000F081E02DC6010995892B79F7C501DF9170
:10035000CF911F910F91FF90EF90DF90CF90BF90C2
:10036000AF900895FC01538D448D252F30E0842FEC
:1003700090E0821B930B541710F0CF9608950197CD
:100380000895FC01918D828D981761F0A28DAE0FBA
:10039000BF2FB11D5D968C91928D9F5F9F73928F41
:1003A00090E008958FEF9FEF0895FC01918D828D6D
:1003B000981731F0828DE80FF11D858D90E008953A
:1003C0008FEF9FEF08952FB7F89480912B019091B4
:1003D0002C01A0912D01B0912E012FBF80933701E8
:1003E00090933801A0933901B0933A018FE291E0E4
:1003F0000E94D50197FF26C02FB7F89480912B015A
:1004000090912C01A0912D01B0912E012FBF409110
:100410003701509138016091390170913A01841B84
:10042000950BA60BB70B40913301509134016091AD
:1004300035017091360184179507A607B707B0F20A
:100440008FEF9FEF0895FC01918D228D892F90E011
:10045000805C9F4F821B91098F73992708958FE2CB
:1004600091E00E94230221E0892B09F420E0822FF1
:10047000089580E090E0892B29F00E942F028111DD
:100480000C9400000895FC01A48DA80FB92FB11D94
:10049000A35ABF4F2C91848D90E001968F739927BA
:1004A000848FA689B7892C93A089B1898C91837098
:1004B00080648C93938D848D981306C00288F38991
:1004C000E02D80818F7D80830895EF92FF920F93BE
:1004D0001F93CF93DF93EC0181E0888F9B8D8C8DF0
:1004E00098131AC0E889F989808185FF15C09FB7E4
:1004F000F894EE89FF896083E889F98980818370A7
:10050000806480839FBF81E090E0DF91CF911F9155
:100510000F91FF90EF900895F62E0B8D10E00F5F76
:100520001F4F0F731127E02E8C8D8E110CC00FB64C
:1005300007FCFACFE889F989808185FFF5CFCE01E4
:100540000E944302F1CFEB8DEC0FFD2FF11DE35A1A
:10055000FF4FF0829FB7F8940B8FEA89FB89808167
:100560008062CFCFCF93DF93EC01888D8823B9F0E1
:10057000AA89BB89E889F9898C9185FD03C08081AE
:1005800086FD0DC00FB607FCF7CF8C9185FFF2CF2B
:10059000808185FFEDCFCE010E944302E9CFDF913C
:1005A000CF910895FC0101900020E9F73197AF0148
:1005B000481B590BBC018FE291E00C9485018F928E
:1005C0009F92AF92BF920F931F93CF93DF93CDB7BC
:1005D000DEB7A1970FB6F894DEBF0FBECDBF19A24C
:1005E000423008F44AE08E010F5D1F4F842E912C9B
:1005F000B12CA12CA50194010E949105E62FB9010F
:10060000CA01EA30F4F4E05DD801EE938D01232BAA
:10061000242B252B79F790E080E0109719F0CD017D
:100620000E94D202A1960FB6F894DEBF0FBECDBFD6
:10063000DF91CF911F910F91BF90AF909F908F90BE
:100640000895E95CE1CF1F920F920FB60F9211242B
:100650002F933F938F939F93AF93BF9380912B01E1
:1006600090912C01A0912D01B0912E013091260185
:1006700023E0230F2D3758F50196A11DB11D2093BE
:10068000260180932B0190932C01A0932D01B09310
:100690002E018091270190912801A0912901B0910C
:1006A0002A010196A11DB11D809327019093280175
:1006B000A0932901B0932A01BF91AF919F918F918F
:1006C0003F912F910F900FBE0F901F90189526E825
:1006D000230F0296A11DB11DD2CF1F920F920FB60C
:1006E0000F9211242F933F934F935F936F937F93B8
:1006F0008F939F93AF93BF93EF93FF938FE291E01C
:100700000E944302FF91EF91BF91AF919F918F9112
:100710007F916F915F914F913F912F910F900FBEFD
:100720000F901F9018951F920F920FB60F921124E1
:100730002F938F939F93EF93FF93E0913F01F0915D
:1007400040018081E0914501F091460182FD1BC08E
:100750009081809148018F5F8F73209149018217AA
:1007600041F0E0914801F0E0E15DFE4F958F80930C
:100770004801FF91EF919F918F912F910F900FBEA4
:100780000F901F9018958081F4CF789484B5826083
:1007900084BD84B5816084BD85B5826085BD85B525
:1007A000816085BD80916E00816080936E001092A3
:1007B000810080918100826080938100809181001E
:1007C00081608093810080918000816080938000AF
:1007D0008091B10084608093B1008091B00081600D
:1007E0008093B00080917A00846080937A00809139
:1007F0007A00826080937A0080917A008160809391
:100800007A0080917A00806880937A001092C1000B
:1008100089E00E948C008AE00E948C0060E089E000
:100820000E94FD0060E08AE00E94FD000E945001ED
:1008300061E089E00E94FD000E94500160E089E0D3
:100840000E94FD0081E090E09093250180932401B7
:10085000E0913F01F091400182E08083E0913B0113
:10086000F0913C011082E0913D01F0913E018FEC4E
:10087000808310924701E0914301F091440186E0AA
:100880008083E0914101F091420180818061808309
:10089000E0914101F0914201808188608083E09184
:1008A0004101F0914201808180688083E0914101A3
:1008B000F091420180818F7D8083C0E0D0E001E033
:1008C00010E082E0A82EB12C8FE291E00E9423027A
:1008D000892B09F454C00E94E301FC0197FD62C01A
:1008E0008D32910521F0C0970A9708F053C0C12CB2
:1008F000D12C7601912CE130F105D9F0ED32F105E2
:1009000009F44DC0CF01C0970A9798F4AAE0B0E06F
:10091000A70196010E9477056F01FF0FEE08FF08FF
:10092000C60ED71EE81EF91E80E3C81AD108E108DA
:10093000F1088FE291E00E94C1010E94E301FC01F5
:10094000C0970A97C0F2E130F105A9F2992041F071
:10095000F094E094D094C094C11CD11CE11CF11C13
:1009600088E6C816D10409F46CC004F585E6C816FB
:10097000D10499F186E6C816D10409F448C020973D
:1009800009F4A2CF0E942F02882309F49DCF0E9470
:1009900000009ACF8FE291E00E94C1019CCF992480
:1009A0009394C7CFC12CD12C7601DACF8CE6C81630
:1009B000D10409F463C08DE6C816D10409F464C0FB
:1009C0008BE6C816D104D9F685E191E00E94D202E7
:1009D00082E191E00E94D202D2CF8AE00E94D4004C
:1009E000019731F460E08AE00E94FD000E9450010E
:1009F00061E089E00E94FD000E94500160E089E012
:100A00000E94FD001093250100932401B8CF89E0D6
:100A10000E94D400019731F460E089E00E94FD005B
:100A20000E94500161E08AE00E94FD000E94500196
:100A300060E08AE00E94FD00B0922501A0922401AE
:100A40009ECFC0902401D09025010D2C000CEE0803
:100A5000FF084AE0C701B601F7FE0DC06DE28FE264
:100A600091E00E94650266277727CB016C197D090A
:100A70008E099F094AE00E94DF02AACF4AE063ED97
:100A800071E186E691E0F7CF4AE064ED71E186E638
:100A900091E0F1CFEFE2F1E01382128288EE93E071
:100AA000A0E0B0E084839583A683B78384E091E0DF
:100AB0009183808385EC90E09587848784EC90E037
:100AC0009787868780EC90E0918B808B81EC90E01B
:100AD000938B828B82EC90E0958B848B86EC90E0FC
:100AE000978B868B118E128E138E148E08950E9412
:100AF0008205A59F900DB49F900DA49F800D911D20
:100B000011240895A29FB001B39FC001A39F700D4F
:100B1000811D1124911DB29F700D811D1124911D05
:100B20000895A1E21A2EAA1BBB1BFD010DC0AA1F2E
:100B3000BB1FEE1FFF1FA217B307E407F50720F046
:100B4000A21BB30BE40BF50B661F771F881F991FC1
:100B50001A9469F760957095809590959B01AC010A
:100B6000BD01CF010895EE0FFF1F0590F491E02D18
:060B70000994F894FFCF88
:100B76000000000065028501B201B2022302C10134
:100B8600D5010D0A00312E34584C2D30312D31311E
:040B96002E323400C7
:00000001FF
